:060000000A128A11FC2F18
:100EAC0083160313111411185C2F5D2F592F080092
:100EBC008316031311151119642F652F612F080068
:100ECC00F000700883120313930083160313141895
:100EDC00702F712F6B2F0800F3007308F200013094
:100EEC000310F20DFF3E031D762F0310720D013817
:100EFC00831203139F001F19842F852F812F1E0827
:100F0C00F100831603131E08F00008000A128A1160
:100F1C0056270A128A11A6300A128A1166270A125B
:100F2C008A1132300A128A1166270A128A11710844
:100F3C000A128A1166270A128A1173080A128A1178
:100F4C0066270A128A1175080A128A1166270A1274
:100F5C008A110A128A115E270A128A110800FF30C0
:100F6C008316031385000F309F0000300A128A117C
:100F7C0072270A128A11710883120313A1007008D8
:100F8C00A00001300A128A1172270A128A11710804
:100F9C0083120313A3007008A20004300A128A11F2
:100FAC0072270A128A11710883120313A5007008A4
:100FBC00A4002108F2002008F1002308F400220804
:100FCC00F3002508F6002408F5000A128A118C2774
:100FDC000A128A11A330F8005530F700F70BF42FE2
:100FEC00F80BF42FBB2F0A128A11002883010A1266
:040FFC008A11B52F72
:02400E00723FFF
:00000001FF
